{
  "_format": "hh-sol-artifact-1",
  "contractName": "LangitPaymaster",
  "sourceName": "contracts/LangitPaymaster.sol",
  "abi": [
    {
      "inputs": [
        {
          "internalType": "contract IEntryPoint",
          "name": "_entryPoint",
          "type": "address"
        },
        {
          "internalType": "address",
          "name": "_owner",
          "type": "address"
        }
      ],
      "stateMutability": "nonpayable",
      "type": "constructor"
    },
    {
      "anonymous": false,
      "inputs": [
        {
          "indexed": true,
          "internalType": "address",
          "name": "previousOwner",
          "type": "address"
        },
        {
          "indexed": true,
          "internalType": "address",
          "name": "newOwner",
          "type": "address"
        }
      ],
      "name": "OwnershipTransferred",
      "type": "event"
    },
    {
      "inputs": [],
      "name": "POST_OP_GAS",
      "outputs": [
        {
          "internalType": "uint256",
          "name": "",
          "type": "uint256"
        }
      ],
      "stateMutability": "view",
      "type": "function"
    },
    {
      "inputs": [
        {
          "internalType": "uint32",
          "name": "unstakeDelaySec",
          "type": "uint32"
        }
      ],
      "name": "addStake",
      "outputs": [],
      "stateMutability": "payable",
      "type": "function"
    },
    {
      "inputs": [],
      "name": "deposit",
      "outputs": [],
      "stateMutability": "payable",
      "type": "function"
    },
    {
      "inputs": [],
      "name": "entryPoint",
      "outputs": [
        {
          "internalType": "contract IEntryPoint",
          "name": "",
          "type": "address"
        }
      ],
      "stateMutability": "view",
      "type": "function"
    },
    {
      "inputs": [],
      "name": "getDeposit",
      "outputs": [
        {
          "internalType": "uint256",
          "name": "",
          "type": "uint256"
        }
      ],
      "stateMutability": "view",
      "type": "function"
    },
    {
      "inputs": [
        {
          "components": [
            {
              "internalType": "address",
              "name": "sender",
              "type": "address"
            },
            {
              "internalType": "uint256",
              "name": "nonce",
              "type": "uint256"
            },
            {
              "internalType": "bytes",
              "name": "initCode",
              "type": "bytes"
            },
            {
              "internalType": "bytes",
              "name": "callData",
              "type": "bytes"
            },
            {
              "internalType": "uint256",
              "name": "callGasLimit",
              "type": "uint256"
            },
            {
              "internalType": "uint256",
              "name": "verificationGasLimit",
              "type": "uint256"
            },
            {
              "internalType": "uint256",
              "name": "preVerificationGas",
              "type": "uint256"
            },
            {
              "internalType": "uint256",
              "name": "maxFeePerGas",
              "type": "uint256"
            },
            {
              "internalType": "uint256",
              "name": "maxPriorityFeePerGas",
              "type": "uint256"
            },
            {
              "internalType": "bytes",
              "name": "paymasterAndData",
              "type": "bytes"
            },
            {
              "internalType": "bytes",
              "name": "signature",
              "type": "bytes"
            }
          ],
          "internalType": "struct UserOperation",
          "name": "userOp",
          "type": "tuple"
        },
        {
          "internalType": "uint48",
          "name": "validUntil",
          "type": "uint48"
        },
        {
          "internalType": "uint48",
          "name": "validAfter",
          "type": "uint48"
        },
        {
          "internalType": "address",
          "name": "erc20Token",
          "type": "address"
        },
        {
          "internalType": "uint256",
          "name": "exchangeRate",
          "type": "uint256"
        }
      ],
      "name": "getHash",
      "outputs": [
        {
          "internalType": "bytes32",
          "name": "",
          "type": "bytes32"
        }
      ],
      "stateMutability": "view",
      "type": "function"
    },
    {
      "inputs": [],
      "name": "owner",
      "outputs": [
        {
          "internalType": "address",
          "name": "",
          "type": "address"
        }
      ],
      "stateMutability": "view",
      "type": "function"
    },
    {
      "inputs": [
        {
          "internalType": "bytes",
          "name": "paymasterAndData",
          "type": "bytes"
        }
      ],
      "name": "parsePaymasterAndData",
      "outputs": [
        {
          "internalType": "uint48",
          "name": "validUntil",
          "type": "uint48"
        },
        {
          "internalType": "uint48",
          "name": "validAfter",
          "type": "uint48"
        },
        {
          "internalType": "address",
          "name": "erc20Token",
          "type": "address"
        },
        {
          "internalType": "uint256",
          "name": "exchangeRate",
          "type": "uint256"
        },
        {
          "internalType": "bytes",
          "name": "signature",
          "type": "bytes"
        }
      ],
      "stateMutability": "pure",
      "type": "function"
    },
    {
      "inputs": [
        {
          "internalType": "enum IPaymaster.PostOpMode",
          "name": "mode",
          "type": "uint8"
        },
        {
          "internalType": "bytes",
          "name": "context",
          "type": "bytes"
        },
        {
          "internalType": "uint256",
          "name": "actualGasCost",
          "type": "uint256"
        }
      ],
      "name": "postOp",
      "outputs": [],
      "stateMutability": "nonpayable",
      "type": "function"
    },
    {
      "inputs": [],
      "name": "renounceOwnership",
      "outputs": [],
      "stateMutability": "nonpayable",
      "type": "function"
    },
    {
      "inputs": [
        {
          "internalType": "address",
          "name": "_vault",
          "type": "address"
        }
      ],
      "name": "setVault",
      "outputs": [],
      "stateMutability": "nonpayable",
      "type": "function"
    },
    {
      "inputs": [
        {
          "internalType": "address",
          "name": "_verifier",
          "type": "address"
        }
      ],
      "name": "setVerifier",
      "outputs": [],
      "stateMutability": "nonpayable",
      "type": "function"
    },
    {
      "inputs": [
        {
          "internalType": "address",
          "name": "newOwner",
          "type": "address"
        }
      ],
      "name": "transferOwnership",
      "outputs": [],
      "stateMutability": "nonpayable",
      "type": "function"
    },
    {
      "inputs": [],
      "name": "unlockStake",
      "outputs": [],
      "stateMutability": "nonpayable",
      "type": "function"
    },
    {
      "inputs": [
        {
          "components": [
            {
              "internalType": "address",
              "name": "sender",
              "type": "address"
            },
            {
              "internalType": "uint256",
              "name": "nonce",
              "type": "uint256"
            },
            {
              "internalType": "bytes",
              "name": "initCode",
              "type": "bytes"
            },
            {
              "internalType": "bytes",
              "name": "callData",
              "type": "bytes"
            },
            {
              "internalType": "uint256",
              "name": "callGasLimit",
              "type": "uint256"
            },
            {
              "internalType": "uint256",
              "name": "verificationGasLimit",
              "type": "uint256"
            },
            {
              "internalType": "uint256",
              "name": "preVerificationGas",
              "type": "uint256"
            },
            {
              "internalType": "uint256",
              "name": "maxFeePerGas",
              "type": "uint256"
            },
            {
              "internalType": "uint256",
              "name": "maxPriorityFeePerGas",
              "type": "uint256"
            },
            {
              "internalType": "bytes",
              "name": "paymasterAndData",
              "type": "bytes"
            },
            {
              "internalType": "bytes",
              "name": "signature",
              "type": "bytes"
            }
          ],
          "internalType": "struct UserOperation",
          "name": "userOp",
          "type": "tuple"
        },
        {
          "internalType": "bytes32",
          "name": "userOpHash",
          "type": "bytes32"
        },
        {
          "internalType": "uint256",
          "name": "maxCost",
          "type": "uint256"
        }
      ],
      "name": "validatePaymasterUserOp",
      "outputs": [
        {
          "internalType": "bytes",
          "name": "context",
          "type": "bytes"
        },
        {
          "internalType": "uint256",
          "name": "validationData",
          "type": "uint256"
        }
      ],
      "stateMutability": "nonpayable",
      "type": "function"
    },
    {
      "inputs": [],
      "name": "vault",
      "outputs": [
        {
          "internalType": "address",
          "name": "",
          "type": "address"
        }
      ],
      "stateMutability": "view",
      "type": "function"
    },
    {
      "inputs": [],
      "name": "verifier",
      "outputs": [
        {
          "internalType": "address",
          "name": "",
          "type": "address"
        }
      ],
      "stateMutability": "view",
      "type": "function"
    },
    {
      "inputs": [
        {
          "internalType": "address payable",
          "name": "withdrawAddress",
          "type": "address"
        }
      ],
      "name": "withdrawStake",
      "outputs": [],
      "stateMutability": "nonpayable",
      "type": "function"
    },
    {
      "inputs": [
        {
          "internalType": "address payable",
          "name": "withdrawAddress",
          "type": "address"
        },
        {
          "internalType": "uint256",
          "name": "amount",
          "type": "uint256"
        }
      ],
      "name": "withdrawTo",
      "outputs": [],
      "stateMutability": "nonpayable",
      "type": "function"
    }
  ],
  "bytecode": "0x60a06040523480156200001157600080fd5b5060405162001ae038038062001ae08339810160408190526200003491620000f1565b81620000403362000088565b6001600160a01b0316608052620000578162000088565b600180546001600160a01b039092166001600160a01b03199283168117909155600280549092161790555062000130565b600080546001600160a01b038381166001600160a01b0319831681178455604051919092169283917f8be0079c531659141344cd1fd0a4f28419497f9722a3daafe3b4186f6b6457e09190a35050565b6001600160a01b0381168114620000ee57600080fd5b50565b600080604083850312156200010557600080fd5b82516200011281620000d8565b60208401519092506200012581620000d8565b809150509250929050565b6080516119636200017d600039600081816102c0015281816103f4015281816104a40152818161061d015281816106ca0152818161075a015281816108000152610a7201526119636000f3fe6080604052600436106101445760003560e01c8063a9a23409116100c0578063c399ec8811610074578063f2fde38b11610059578063f2fde38b1461034a578063f465c77e1461036a578063fbfa77cf1461039857600080fd5b8063c399ec881461032d578063d0e30db01461034257600080fd5b8063b8202d8f116100a5578063b8202d8f146102e2578063bb9fe6bf146102f8578063c23a5cea1461030d57600080fd5b8063a9a234091461028e578063b0d691fe146102ae57600080fd5b80635437988d11610117578063715018a6116100fc578063715018a6146102295780638da5cb5b1461023e57806394d4ad601461025c57600080fd5b80635437988d146101e95780636817031b1461020957600080fd5b80630396cb6014610149578063205c28781461015e578063290da2ad1461017e5780632b7ac3f3146101b1575b600080fd5b61015c6101573660046113a6565b6103b8565b005b34801561016a57600080fd5b5061015c6101793660046113e8565b61045d565b34801561018a57600080fd5b5061019e610199366004611448565b6104e8565b6040519081526020015b60405180910390f35b3480156101bd57600080fd5b506001546101d1906001600160a01b031681565b6040516001600160a01b0390911681526020016101a8565b3480156101f557600080fd5b5061015c6102043660046114c1565b610530565b34801561021557600080fd5b5061015c6102243660046114c1565b610567565b34801561023557600080fd5b5061015c61059e565b34801561024a57600080fd5b506000546001600160a01b03166101d1565b34801561026857600080fd5b5061027c610277366004611520565b6105b2565b6040516101a896959493929190611562565b34801561029a57600080fd5b5061015c6102a93660046115c5565b6105f9565b3480156102ba57600080fd5b506101d17f000000000000000000000000000000000000000000000000000000000000000081565b3480156102ee57600080fd5b5061019e6188b881565b34801561030457600080fd5b5061015c610613565b34801561031957600080fd5b5061015c6103283660046114c1565b61068a565b34801561033957600080fd5b5061019e610729565b61015c6107d2565b34801561035657600080fd5b5061015c6103653660046114c1565b61084d565b34801561037657600080fd5b5061038a610385366004611625565b6108e2565b6040516101a89291906116c3565b3480156103a457600080fd5b506002546101d1906001600160a01b031681565b6103c0610906565b6040517f0396cb6000000000000000000000000000000000000000000000000000000000815263ffffffff821660048201527f00000000000000000000000000000000000000000000000000000000000000006001600160a01b031690630396cb609034906024016000604051808303818588803b15801561044157600080fd5b505af1158015610455573d6000803e3d6000fd5b505050505050565b610465610906565b6040517f205c28780000000000000000000000000000000000000000000000000000000081526001600160a01b038381166004830152602482018390527f0000000000000000000000000000000000000000000000000000000000000000169063205c287890604401600060405180830381600087803b15801561044157600080fd5b60006104f386610960565b46308787878760405160200161050f97969594939291906116e5565b60405160208183030381529060405280519060200120905095945050505050565b610538610906565b6001805473ffffffffffffffffffffffffffffffffffffffff19166001600160a01b0392909216919091179055565b61056f610906565b6002805473ffffffffffffffffffffffffffffffffffffffff19166001600160a01b0392909216919091179055565b6105a6610906565b6105b06000610a0a565b565b600080808036816105c760946014898b61173c565b8101906105d49190611766565b929850909650945092506105eb876094818b61173c565b915091509295509295509295565b610601610a67565b61060d84848484610adf565b50505050565b61061b610906565b7f00000000000000000000000000000000000000000000000000000000000000006001600160a01b031663bb9fe6bf6040518163ffffffff1660e01b8152600401600060405180830381600087803b15801561067657600080fd5b505af115801561060d573d6000803e3d6000fd5b610692610906565b6040517fc23a5cea0000000000000000000000000000000000000000000000000000000081526001600160a01b0382811660048301527f0000000000000000000000000000000000000000000000000000000000000000169063c23a5cea90602401600060405180830381600087803b15801561070e57600080fd5b505af1158015610722573d6000803e3d6000fd5b5050505050565b6040517f70a082310000000000000000000000000000000000000000000000000000000081523060048201526000907f00000000000000000000000000000000000000000000000000000000000000006001600160a01b0316906370a0823190602401602060405180830381865afa1580156107a9573d6000803e3d6000fd5b505050506040513d601f19601f820116820180604052508101906107cd91906117b3565b905090565b6040517fb760faf90000000000000000000000000000000000000000000000000000000081523060048201527f00000000000000000000000000000000000000000000000000000000000000006001600160a01b03169063b760faf99034906024016000604051808303818588803b15801561070e57600080fd5b610855610906565b6001600160a01b0381166108d65760405162461bcd60e51b815260206004820152602660248201527f4f776e61626c653a206e6577206f776e657220697320746865207a65726f206160448201527f646472657373000000000000000000000000000000000000000000000000000060648201526084015b60405180910390fd5b6108df81610a0a565b50565b606060006108ee610a67565b6108f9858585610b94565b915091505b935093915050565b6000546001600160a01b031633146105b05760405162461bcd60e51b815260206004820181905260248201527f4f776e61626c653a2063616c6c6572206973206e6f7420746865206f776e657260448201526064016108cd565b60608135602083013561097e61097960408601866117cc565b610d93565b61098e61097960608701876117cc565b604080516001600160a01b039095166020860152840192909252606083015260808281019190915283013560a08281019190915283013560c08281019190915283013560e08281019190915283013561010082810191909152830135610120820152610140016040516020818303038152906040529050919050565b600080546001600160a01b0383811673ffffffffffffffffffffffffffffffffffffffff19831681178455604051919092169283917f8be0079c531659141344cd1fd0a4f28419497f9722a3daafe3b4186f6b6457e09190a35050565b336001600160a01b037f000000000000000000000000000000000000000000000000000000000000000016146105b05760405162461bcd60e51b815260206004820152601560248201527f53656e646572206e6f7420456e747279506f696e74000000000000000000000060448201526064016108cd565b600080808080610af187890189611813565b945094509450945094506000818303610b0b575081610b1a565b610b1783488401610da6565b90505b6000670de0b6b3a764000085610b32846188b861187a565b610b3c908b611891565b610b46919061187a565b610b5091906118a4565b905060028b6002811115610b6657610b666118c6565b14610b8757600254610b87906001600160a01b03888116918a911684610dc0565b5050505050505050505050565b60606000808080803681610baf6102776101208d018d6117cc565b9550955095509550955095508181905060401480610bcd5750604181145b610c41576040805162461bcd60e51b81526020600482015260248101919091527f566572696679696e675061796d61737465723a20696e76616c6964207369676e60448201527f6174757265206c656e67746820696e207061796d6173746572416e644461746160648201526084016108cd565b6000610c86610c538d898989896104e8565b7f19457468657265756d205369676e6564204d6573736167653a0a3332000000006000908152601c91909152603c902090565b604080516020810190915260008152995090506001600160a01b03851615610d0157610cb560208d018d6114c1565b604080516001600160a01b039283166020820152918716908201526060810185905260e08d013560808201526101008d013560a082015260c00160405160208183030381529060405298505b610d418184848080601f016020809104026020016040519081016040528093929190818152602001838380828437600092019190915250610e4892505050565b6001546001600160a01b03908116911614610d735788610d6360018989610e6c565b98509850505050505050506108fe565b88610d8060008989610e6c565b9850985050505050505050935093915050565b6000604051828085833790209392505050565b6000818310610db55781610db7565b825b90505b92915050565b604080516001600160a01b0385811660248301528416604482015260648082018490528251808303909101815260849091019091526020810180517bffffffffffffffffffffffffffffffffffffffffffffffffffffffff167f23b872dd0000000000000000000000000000000000000000000000000000000017905261060d908590610ea4565b6000806000610e578585610f91565b91509150610e6481610fd6565b509392505050565b600060d08265ffffffffffff16901b60a08465ffffffffffff16901b85610e94576000610e97565b60015b60ff161717949350505050565b6000610ef9826040518060400160405280602081526020017f5361666545524332303a206c6f772d6c6576656c2063616c6c206661696c6564815250856001600160a01b031661113b9092919063ffffffff16565b9050805160001480610f1a575080806020019051810190610f1a91906118dc565b610f8c5760405162461bcd60e51b815260206004820152602a60248201527f5361666545524332303a204552433230206f7065726174696f6e20646964206e60448201527f6f7420737563636565640000000000000000000000000000000000000000000060648201526084016108cd565b505050565b6000808251604103610fc75760208301516040840151606085015160001a610fbb87828585611152565b94509450505050610fcf565b506000905060025b9250929050565b6000816004811115610fea57610fea6118c6565b03610ff25750565b6001816004811115611006576110066118c6565b036110535760405162461bcd60e51b815260206004820152601860248201527f45434453413a20696e76616c6964207369676e6174757265000000000000000060448201526064016108cd565b6002816004811115611067576110676118c6565b036110b45760405162461bcd60e51b815260206004820152601f60248201527f45434453413a20696e76616c6964207369676e6174757265206c656e6774680060448201526064016108cd565b60038160048111156110c8576110c86118c6565b036108df5760405162461bcd60e51b815260206004820152602260248201527f45434453413a20696e76616c6964207369676e6174757265202773272076616c60448201527f756500000000000000000000000000000000000000000000000000000000000060648201526084016108cd565b606061114a8484600085611216565b949350505050565b6000807f7fffffffffffffffffffffffffffffff5d576e7357a4501ddfe92f46681b20a0831115611189575060009050600361120d565b6040805160008082526020820180845289905260ff881692820192909252606081018690526080810185905260019060a0016020604051602081039080840390855afa1580156111dd573d6000803e3d6000fd5b5050604051601f1901519150506001600160a01b0381166112065760006001925092505061120d565b9150600090505b94509492505050565b60608247101561128e5760405162461bcd60e51b815260206004820152602660248201527f416464726573733a20696e73756666696369656e742062616c616e636520666f60448201527f722063616c6c000000000000000000000000000000000000000000000000000060648201526084016108cd565b600080866001600160a01b031685876040516112aa91906118fe565b60006040518083038185875af1925050503d80600081146112e7576040519150601f19603f3d011682016040523d82523d6000602084013e6112ec565b606091505b50915091506112fd87838387611308565b979650505050505050565b60608315611377578251600003611370576001600160a01b0385163b6113705760405162461bcd60e51b815260206004820152601d60248201527f416464726573733a2063616c6c20746f206e6f6e2d636f6e747261637400000060448201526064016108cd565b508161114a565b61114a838381511561138c5781518083602001fd5b8060405162461bcd60e51b81526004016108cd919061191a565b6000602082840312156113b857600080fd5b813563ffffffff811681146113cc57600080fd5b9392505050565b6001600160a01b03811681146108df57600080fd5b600080604083850312156113fb57600080fd5b8235611406816113d3565b946020939093013593505050565b6000610160828403121561142757600080fd5b50919050565b803565ffffffffffff8116811461144357600080fd5b919050565b600080600080600060a0868803121561146057600080fd5b853567ffffffffffffffff81111561147757600080fd5b61148388828901611414565b9550506114926020870161142d565b93506114a06040870161142d565b925060608601356114b0816113d3565b949793965091946080013592915050565b6000602082840312156114d357600080fd5b81356113cc816113d3565b60008083601f8401126114f057600080fd5b50813567ffffffffffffffff81111561150857600080fd5b602083019150836020828501011115610fcf57600080fd5b6000806020838503121561153357600080fd5b823567ffffffffffffffff81111561154a57600080fd5b611556858286016114de565b90969095509350505050565b600065ffffffffffff80891683528088166020840152506001600160a01b038616604083015284606083015260a060808301528260a0830152828460c0840137600060c0848401015260c0601f19601f8501168301019050979650505050505050565b600080600080606085870312156115db57600080fd5b8435600381106115ea57600080fd5b9350602085013567ffffffffffffffff81111561160657600080fd5b611612878288016114de565b9598909750949560400135949350505050565b60008060006060848603121561163a57600080fd5b833567ffffffffffffffff81111561165157600080fd5b61165d86828701611414565b9660208601359650604090950135949350505050565b60005b8381101561168e578181015183820152602001611676565b50506000910152565b600081518084526116af816020860160208601611673565b601f01601f19169290920160200192915050565b6040815260006116d66040830185611697565b90508260208301529392505050565b60e0815260006116f860e083018a611697565b6020830198909852506001600160a01b03958616604082015265ffffffffffff948516606082015292909316608083015290921660a083015260c090910152919050565b6000808585111561174c57600080fd5b8386111561175957600080fd5b5050820193919092039150565b6000806000806080858703121561177c57600080fd5b6117858561142d565b93506117936020860161142d565b925060408501356117a3816113d3565b9396929550929360600135925050565b6000602082840312156117c557600080fd5b5051919050565b6000808335601e198436030181126117e357600080fd5b83018035915067ffffffffffffffff8211156117fe57600080fd5b602001915036819003821315610fcf57600080fd5b600080600080600060a0868803121561182b57600080fd5b8535611836816113d3565b94506020860135611846816113d3565b94979496505050506040830135926060810135926080909101359150565b634e487b7160e01b600052601160045260246000fd5b8082028115828204841417610dba57610dba611864565b80820180821115610dba57610dba611864565b6000826118c157634e487b7160e01b600052601260045260246000fd5b500490565b634e487b7160e01b600052602160045260246000fd5b6000602082840312156118ee57600080fd5b815180151581146113cc57600080fd5b60008251611910818460208701611673565b9190910192915050565b602081526000610db7602083018461169756fea2646970667358221220b18682347bfa5ece8c365749efd5ac4ab97d635bc8d77a4e7135ea515335e4e564736f6c63430008180033",
  "linkReferences": {},
  "deployedLinkReferences": {}
}