{
  "_format": "hh-sol-artifact-1",
  "contractName": "LangitAccountFactory",
  "sourceName": "contracts/LangitAccountFactory.sol",
  "abi": [
    {
      "inputs": [
        {
          "internalType": "contract IEntryPoint",
          "name": "_entrypoint",
          "type": "address"
        }
      ],
      "stateMutability": "nonpayable",
      "type": "constructor"
    },
    {
      "anonymous": false,
      "inputs": [
        {
          "indexed": true,
          "internalType": "address",
          "name": "account",
          "type": "address"
        },
        {
          "indexed": true,
          "internalType": "address",
          "name": "accountAdmin",
          "type": "address"
        }
      ],
      "name": "AccountCreated",
      "type": "event"
    },
    {
      "anonymous": false,
      "inputs": [
        {
          "indexed": false,
          "internalType": "string",
          "name": "email",
          "type": "string"
        },
        {
          "indexed": false,
          "internalType": "address",
          "name": "account",
          "type": "address"
        }
      ],
      "name": "Registered",
      "type": "event"
    },
    {
      "anonymous": false,
      "inputs": [
        {
          "indexed": true,
          "internalType": "address",
          "name": "account",
          "type": "address"
        },
        {
          "indexed": true,
          "internalType": "address",
          "name": "signer",
          "type": "address"
        }
      ],
      "name": "SignerAdded",
      "type": "event"
    },
    {
      "anonymous": false,
      "inputs": [
        {
          "indexed": true,
          "internalType": "address",
          "name": "account",
          "type": "address"
        },
        {
          "indexed": true,
          "internalType": "address",
          "name": "signer",
          "type": "address"
        }
      ],
      "name": "SignerRemoved",
      "type": "event"
    },
    {
      "inputs": [],
      "name": "accountImplementation",
      "outputs": [
        {
          "internalType": "address",
          "name": "",
          "type": "address"
        }
      ],
      "stateMutability": "view",
      "type": "function"
    },
    {
      "inputs": [
        {
          "internalType": "string",
          "name": "",
          "type": "string"
        }
      ],
      "name": "accountOfEmail",
      "outputs": [
        {
          "internalType": "address",
          "name": "",
          "type": "address"
        }
      ],
      "stateMutability": "view",
      "type": "function"
    },
    {
      "inputs": [
        {
          "internalType": "address",
          "name": "_admin",
          "type": "address"
        },
        {
          "internalType": "bytes",
          "name": "_data",
          "type": "bytes"
        }
      ],
      "name": "createAccount",
      "outputs": [
        {
          "internalType": "address",
          "name": "",
          "type": "address"
        }
      ],
      "stateMutability": "nonpayable",
      "type": "function"
    },
    {
      "inputs": [],
      "name": "entrypoint",
      "outputs": [
        {
          "internalType": "address",
          "name": "",
          "type": "address"
        }
      ],
      "stateMutability": "view",
      "type": "function"
    },
    {
      "inputs": [
        {
          "internalType": "uint256",
          "name": "_start",
          "type": "uint256"
        },
        {
          "internalType": "uint256",
          "name": "_end",
          "type": "uint256"
        }
      ],
      "name": "getAccounts",
      "outputs": [
        {
          "internalType": "address[]",
          "name": "accounts",
          "type": "address[]"
        }
      ],
      "stateMutability": "view",
      "type": "function"
    },
    {
      "inputs": [
        {
          "internalType": "address",
          "name": "signer",
          "type": "address"
        }
      ],
      "name": "getAccountsOfSigner",
      "outputs": [
        {
          "internalType": "address[]",
          "name": "accounts",
          "type": "address[]"
        }
      ],
      "stateMutability": "view",
      "type": "function"
    },
    {
      "inputs": [
        {
          "internalType": "address",
          "name": "_adminSigner",
          "type": "address"
        },
        {
          "internalType": "bytes",
          "name": "_data",
          "type": "bytes"
        }
      ],
      "name": "getAddress",
      "outputs": [
        {
          "internalType": "address",
          "name": "",
          "type": "address"
        }
      ],
      "stateMutability": "view",
      "type": "function"
    },
    {
      "inputs": [],
      "name": "getAllAccounts",
      "outputs": [
        {
          "internalType": "address[]",
          "name": "",
          "type": "address[]"
        }
      ],
      "stateMutability": "view",
      "type": "function"
    },
    {
      "inputs": [
        {
          "internalType": "address",
          "name": "_account",
          "type": "address"
        }
      ],
      "name": "isRegistered",
      "outputs": [
        {
          "internalType": "bool",
          "name": "",
          "type": "bool"
        }
      ],
      "stateMutability": "view",
      "type": "function"
    },
    {
      "inputs": [
        {
          "internalType": "bytes[]",
          "name": "data",
          "type": "bytes[]"
        }
      ],
      "name": "multicall",
      "outputs": [
        {
          "internalType": "bytes[]",
          "name": "results",
          "type": "bytes[]"
        }
      ],
      "stateMutability": "nonpayable",
      "type": "function"
    },
    {
      "inputs": [
        {
          "internalType": "bytes32",
          "name": "_salt",
          "type": "bytes32"
        }
      ],
      "name": "onRegister",
      "outputs": [],
      "stateMutability": "nonpayable",
      "type": "function"
    },
    {
      "inputs": [
        {
          "internalType": "string",
          "name": "email",
          "type": "string"
        }
      ],
      "name": "onRegistered",
      "outputs": [],
      "stateMutability": "nonpayable",
      "type": "function"
    },
    {
      "inputs": [
        {
          "internalType": "address",
          "name": "_signer",
          "type": "address"
        },
        {
          "internalType": "bytes32",
          "name": "_salt",
          "type": "bytes32"
        }
      ],
      "name": "onSignerAdded",
      "outputs": [],
      "stateMutability": "nonpayable",
      "type": "function"
    },
    {
      "inputs": [
        {
          "internalType": "address",
          "name": "_signer",
          "type": "address"
        },
        {
          "internalType": "bytes32",
          "name": "_salt",
          "type": "bytes32"
        }
      ],
      "name": "onSignerRemoved",
      "outputs": [],
      "stateMutability": "nonpayable",
      "type": "function"
    },
    {
      "inputs": [],
      "name": "totalAccounts",
      "outputs": [
        {
          "internalType": "uint256",
          "name": "",
          "type": "uint256"
        }
      ],
      "stateMutability": "view",
      "type": "function"
    }
  ],
  "bytecode": "0x60c060405234801561001057600080fd5b506040516200635a3803806200635a83398101604081905261003191610098565b803060405161003f9061008a565b6001600160a01b03928316815291166020820152604001604051809103906000f080158015610072573d6000803e3d6000fd5b506001600160a01b039081166080521660a0526100c8565b614ab480620018a683390190565b6000602082840312156100aa57600080fd5b81516001600160a01b03811681146100c157600080fd5b9392505050565b60805160a05161179c6200010a600039600081816101e60152610a09015260008181610145015281816106f7015281816109650152610c4f015261179c6000f3fe608060405234801561001057600080fd5b50600436106100f55760003560e01c80638878ed3311610097578063c3c5a54711610066578063c3c5a54714610228578063d4a99cc81461024b578063d8fd8f441461027f578063e68a7c3b1461029257600080fd5b80638878ed33146101bb5780639387a380146101ce578063a65d69d4146101e1578063ac9650d81461020857600080fd5b806311464fbe116100d357806311464fbe14610140578063320399631461017f57806358451f971461019257806383a03f8c146101a857600080fd5b806308e93d0a146100fa5780630b61e12b146101185780630e6254fd1461012d575b600080fd5b6101026102a5565b60405161010f91906111ae565b60405180910390f35b61012b610126366004611217565b6102b6565b005b61010261013b366004611241565b610383565b6101677f000000000000000000000000000000000000000000000000000000000000000081565b6040516001600160a01b03909116815260200161010f565b61012b61018d3660046112a5565b6103ad565b61019a6105dc565b60405190815260200161010f565b61012b6101b63660046112e7565b6105e8565b6101676101c9366004611300565b6106ad565b61012b6101dc366004611217565b610727565b6101677f000000000000000000000000000000000000000000000000000000000000000081565b61021b610216366004611353565b6107ee565b60405161010f9190611418565b61023b610236366004611241565b610954565b604051901515815260200161010f565b610167610259366004611492565b80516020818301810180516003825292820191909301209152546001600160a01b031681565b61016761028d366004611300565b610960565b6101026102a0366004611543565b610aee565b60606102b16000610c3a565b905090565b336102c18183610c47565b6103125760405162461bcd60e51b815260206004820152601f60248201527f4163636f756e74466163746f72793a206e6f7420616e206163636f756e742e0060448201526064015b60405180910390fd5b6001600160a01b03831660009081526002602052604081206103349083610c8b565b9050801561037d57836001600160a01b0316826001600160a01b03167f12146497b3b826918ec47f0cac7272a09ed06b30c16c030e99ec48ff5dd60b4760405160405180910390a35b50505050565b6001600160a01b03811660009081526002602052604090206060906103a790610c3a565b92915050565b6040517fc3c5a547000000000000000000000000000000000000000000000000000000008152336004820181905290309063c3c5a54790602401602060405180830381865afa158015610404573d6000803e3d6000fd5b505050506040513d601f19601f820116820180604052508101906104289190611565565b61049a5760405162461bcd60e51b815260206004820152602560248201527f4c616e6769744163636f756e74466163746f72793a206e6f7420616e2061636360448201527f6f756e742e0000000000000000000000000000000000000000000000000000006064820152608401610309565b60006001600160a01b0316600384846040516104b7929190611587565b908152604051908190036020019020546001600160a01b0316146105435760405162461bcd60e51b815260206004820152602e60248201527f4c616e6769744163636f756e74466163746f72793a20656d61696c20616c726560448201527f61647920726567697374657265640000000000000000000000000000000000006064820152608401610309565b8060038484604051610556929190611587565b90815260405190819003602001812080546001600160a01b03939093167fffffffffffffffffffffffff0000000000000000000000000000000000000000909316929092179091557f50f74ca45caac8020b8d891bd13ea5a2d79564986ee6a839f0d914896388322d906105cf908590859085906115c0565b60405180910390a1505050565b60006102b16000610ca0565b336105f38183610c47565b61063f5760405162461bcd60e51b815260206004820152601f60248201527f4163636f756e74466163746f72793a206e6f7420616e206163636f756e742e006044820152606401610309565b61064a600082610c8b565b6106a95760405162461bcd60e51b815260206004820152602a60248201527f4163636f756e74466163746f72793a206163636f756e7420616c7265616479206044820152691c9959da5cdd195c995960b21b6064820152608401610309565b5050565b6000806106f08585858080601f016020809104026020016040519081016040528093929190818152602001838380828437600092019190915250610caa92505050565b905061071c7f000000000000000000000000000000000000000000000000000000000000000082610cdd565b9150505b9392505050565b336107328183610c47565b61077e5760405162461bcd60e51b815260206004820152601f60248201527f4163636f756e74466163746f72793a206e6f7420616e206163636f756e742e006044820152606401610309565b6001600160a01b03831660009081526002602052604081206107a09083610d3d565b9050801561037d57836001600160a01b0316826001600160a01b03167f98d1ebbe00ae92a5de96a0f49742a8afa89f42363592bc2e7cfaaed68b45e7a660405160405180910390a350505050565b60608167ffffffffffffffff8111156108095761080961147c565b60405190808252806020026020018201604052801561083c57816020015b60608152602001906001900390816108275790505b509050336000805b8481101561094b5781156108c3576108a130878784818110610868576108686115ed565b905060200281019061087a9190611603565b8660405160200161088d9392919061164a565b604051602081830303815290604052610d52565b8482815181106108b3576108b36115ed565b6020026020010181905250610943565b610925308787848181106108d9576108d96115ed565b90506020028101906108eb9190611603565b8080601f016020809104026020016040519081016040528093929190818152602001838380828437600092019190915250610d5292505050565b848281518110610937576109376115ed565b60200260200101819052505b600101610844565b50505092915050565b60006103a78183610d77565b6000807f0000000000000000000000000000000000000000000000000000000000000000905060006109c88686868080601f016020809104026020016040519081016040528093929190818152602001838380828437600092019190915250610caa92505050565b905060006109d68383610cdd565b90506001600160a01b0381163b156109f2579250610720915050565b6109fc8383610d99565b9050336001600160a01b037f00000000000000000000000000000000000000000000000000000000000000001614610a9857610a39600082610c8b565b610a985760405162461bcd60e51b815260206004820152602a60248201527f4163636f756e74466163746f72793a206163636f756e7420616c7265616479206044820152691c9959da5cdd195c995960b21b6064820152608401610309565b610aa481888888610e36565b866001600160a01b0316816001600160a01b03167fac631f3001b55ea1509cf3d7e74898f85392a61a76e8149181ae1259622dabc860405160405180910390a39695505050505050565b60608183108015610b085750610b046000610ca0565b8211155b610b7a5760405162461bcd60e51b815260206004820152602360248201527f426173654163636f756e74466163746f72793a20696e76616c696420696e646960448201527f63657300000000000000000000000000000000000000000000000000000000006064820152608401610309565b6000610b868484611686565b9050610b928484611686565b67ffffffffffffffff811115610baa57610baa61147c565b604051908082528060200260200182016040528015610bd3578160200160208202803683370190505b50915060005b81811015610c3257610bf6610bee8683611699565b600090610eb7565b838281518110610c0857610c086115ed565b6001600160a01b0390921660209283029190910190910152610c2b600182611699565b9050610bd9565b505092915050565b6060600061072083610ec3565b600080610c747f000000000000000000000000000000000000000000000000000000000000000084610cdd565b6001600160a01b0385811691161491505092915050565b6000610720836001600160a01b038416610f1f565b60006103a7825490565b60008282604051602001610cbf9291906116ac565b60405160208183030381529060405280519060200120905092915050565b6040513060388201526f5af43d82803e903d91602b57fd5bf3ff602482015260148101839052733d602d80600a3d3981f3363d3d373d3d3d363d738152605881018290526037600c82012060788201526055604390910120600090610720565b6000610720836001600160a01b038416610f6e565b6060610720838360405180606001604052806027815260200161174060279139611061565b6001600160a01b03811660009081526001830160205260408120541515610720565b6000763d602d80600a3d3981f3363d3d373d3d3d363d730000008360601b60e81c176000526e5af43d82803e903d91602b57fd5bf38360781b1760205281603760096000f590506001600160a01b0381166103a75760405162461bcd60e51b815260206004820152601760248201527f455243313136373a2063726561746532206661696c65640000000000000000006044820152606401610309565b6040517fd1f578940000000000000000000000000000000000000000000000000000000081526001600160a01b0385169063d1f5789490610e7f908690869086906004016116ce565b600060405180830381600087803b158015610e9957600080fd5b505af1158015610ead573d6000803e3d6000fd5b5050505050505050565b600061072083836110d9565b606081600001805480602002602001604051908101604052809291908181526020018280548015610f1357602002820191906000526020600020905b815481526020019060010190808311610eff575b50505050509050919050565b6000818152600183016020526040812054610f66575081546001818101845560008481526020808220909301849055845484825282860190935260409020919091556103a7565b5060006103a7565b60008181526001830160205260408120548015611057576000610f92600183611686565b8554909150600090610fa690600190611686565b905081811461100b576000866000018281548110610fc657610fc66115ed565b9060005260206000200154905080876000018481548110610fe957610fe96115ed565b6000918252602080832090910192909255918252600188019052604090208390555b855486908061101c5761101c6116fa565b6001900381819060005260206000200160009055905585600101600086815260200190815260200160002060009055600193505050506103a7565b60009150506103a7565b6060600080856001600160a01b03168560405161107e9190611710565b600060405180830381855af49150503d80600081146110b9576040519150601f19603f3d011682016040523d82523d6000602084013e6110be565b606091505b50915091506110cf86838387611103565b9695505050505050565b60008260000182815481106110f0576110f06115ed565b9060005260206000200154905092915050565b6060831561117257825160000361116b576001600160a01b0385163b61116b5760405162461bcd60e51b815260206004820152601d60248201527f416464726573733a2063616c6c20746f206e6f6e2d636f6e74726163740000006044820152606401610309565b508161117c565b61117c8383611184565b949350505050565b8151156111945781518083602001fd5b8060405162461bcd60e51b8152600401610309919061172c565b6020808252825182820181905260009190848201906040850190845b818110156111ef5783516001600160a01b0316835292840192918401916001016111ca565b50909695505050505050565b80356001600160a01b038116811461121257600080fd5b919050565b6000806040838503121561122a57600080fd5b611233836111fb565b946020939093013593505050565b60006020828403121561125357600080fd5b610720826111fb565b60008083601f84011261126e57600080fd5b50813567ffffffffffffffff81111561128657600080fd5b60208301915083602082850101111561129e57600080fd5b9250929050565b600080602083850312156112b857600080fd5b823567ffffffffffffffff8111156112cf57600080fd5b6112db8582860161125c565b90969095509350505050565b6000602082840312156112f957600080fd5b5035919050565b60008060006040848603121561131557600080fd5b61131e846111fb565b9250602084013567ffffffffffffffff81111561133a57600080fd5b6113468682870161125c565b9497909650939450505050565b6000806020838503121561136657600080fd5b823567ffffffffffffffff8082111561137e57600080fd5b818501915085601f83011261139257600080fd5b8135818111156113a157600080fd5b8660208260051b85010111156113b657600080fd5b60209290920196919550909350505050565b60005b838110156113e35781810151838201526020016113cb565b50506000910152565b600081518084526114048160208601602086016113c8565b601f01601f19169290920160200192915050565b600060208083016020845280855180835260408601915060408160051b87010192506020870160005b8281101561146f57603f1988860301845261145d8583516113ec565b94509285019290850190600101611441565b5092979650505050505050565b634e487b7160e01b600052604160045260246000fd5b6000602082840312156114a457600080fd5b813567ffffffffffffffff808211156114bc57600080fd5b818401915084601f8301126114d057600080fd5b8135818111156114e2576114e261147c565b604051601f8201601f19908116603f0116810190838211818310171561150a5761150a61147c565b8160405282815287602084870101111561152357600080fd5b826020860160208301376000928101602001929092525095945050505050565b6000806040838503121561155657600080fd5b50508035926020909101359150565b60006020828403121561157757600080fd5b8151801515811461072057600080fd5b8183823760009101908152919050565b81835281816020850137506000828201602090810191909152601f909101601f19169091010190565b6040815260006115d4604083018587611597565b90506001600160a01b0383166020830152949350505050565b634e487b7160e01b600052603260045260246000fd5b6000808335601e1984360301811261161a57600080fd5b83018035915067ffffffffffffffff82111561163557600080fd5b60200191503681900382131561129e57600080fd5b8284823760609190911b6bffffffffffffffffffffffff19169101908152601401919050565b634e487b7160e01b600052601160045260246000fd5b818103818111156103a7576103a7611670565b808201808211156103a7576103a7611670565b6001600160a01b038316815260406020820152600061117c60408301846113ec565b6001600160a01b03841681526040602082015260006116f1604083018486611597565b95945050505050565b634e487b7160e01b600052603160045260246000fd5b600082516117228184602087016113c8565b9190910192915050565b60208152600061072060208301846113ec56fe416464726573733a206c6f772d6c6576656c2064656c65676174652063616c6c206661696c6564a26469706673582212202dbda56486d35cdabd82ab58b4890fe3b083e99e0796c80b4272d65af53ccba364736f6c634300081800336101806040523480156200001257600080fd5b5060405162004ab438038062004ab483398101604081905262000035916200027a565b60408051808201825260078152661058d8dbdd5b9d60ca1b6020808301918252835180850190945260018452603160f81b908401528151902060e08190527fc89efdaa54c0f20c7adf612882df0950f5a951637e0307cdcb4c672f298b8bc66101008190524660a05285938593859385939192917f8b73c3c69bb8fe3d512ecc4cf759cc79239f7b179b0ffacaa9a75d522b39400f6200011a8184846040805160208101859052908101839052606081018290524660808201523060a082015260009060c0016040516020818303038152906040528051906020012090509392505050565b6080523060c0526101205250620001359250506200015e9050565b6001600160a01b03908116610140521661016052506200015690506200015e565b5050620002b9565b7f322cf19c484104d3b1a9c2982ebae869ede3fa5f6c4703ca41b9a48c76ee03005460ff808216916101009004168015620001ef5760405162461bcd60e51b815260206004820152602760248201527f496e697469616c697a61626c653a20636f6e747261637420697320696e697469604482015266616c697a696e6760c81b606482015260840160405180910390fd5b60ff82811610156200025d577f322cf19c484104d3b1a9c2982ebae869ede3fa5f6c4703ca41b9a48c76ee0300805460ff191660ff90811790915560408051918252517f7f26b83ff96e1f2b6a682f133852f6798a09c465da95921460cefb38474024989181900360200190a15b5050565b6001600160a01b03811681146200027757600080fd5b50565b600080604083850312156200028e57600080fd5b82516200029b8162000261565b6020840151909250620002ae8162000261565b809150509250929050565b60805160a05160c05160e05161010051610120516101405161016051614764620003506000396000611aed01526000818161054201528181610cd90152818161291201528181612b0d01528181612b4301528181612c3601528181612cac0152612cdc015260006124f701526000612546015260006125210152600061247a015260006124a4015260006124ce01526147646000f3fe6080604052600436106101c65760003560e01c8063938e3d7b116100f7578063c45a015511610095578063e8a3d48511610064578063e8a3d485146105ae578063e9523c97146105d0578063f15d424e146105f2578063f23a6e611461061f57600080fd5b8063c45a015514610530578063d087d28814610564578063d1f5789414610579578063d42f2f351461059957600080fd5b8063b0d691fe116100d1578063b0d691fe1461047e578063b61d27f6146104ab578063b76464d5146104cb578063bc197c81146104eb57600080fd5b8063938e3d7b146103f2578063a9082d8414610412578063ac9650d81461045157600080fd5b80633ffbd47f116101645780634d44560d1161013e5780634d44560d146103705780635892e236146103905780637dff5a79146103b05780638b52d723146103d057600080fd5b80633ffbd47f1461032657806347e1da2a146103485780634a58db191461036857600080fd5b80631dd756c5116101a05780631dd756c51461026057806324d7806c14610280578063399b77da146102d85780633a871cdd1461030657600080fd5b806301ffc9a7146101d2578063150b7a02146102075780631626ba7e1461024057600080fd5b366101cd57005b600080fd5b3480156101de57600080fd5b506101f26101ed3660046135d5565b610664565b60405190151581526020015b60405180910390f35b34801561021357600080fd5b506102276102223660046136e3565b6106aa565b6040516001600160e01b031990911681526020016101fe565b34801561024c57600080fd5b5061022761025b36600461374f565b6106bb565b34801561026c57600080fd5b506101f261027b3660046137af565b61083b565b34801561028c57600080fd5b506101f261029b3660046137f5565b6001600160a01b031660009081527f3181e78fc1b109bc611fd2406150bf06e33faa75f71cba12c3e1fd670f2def04602052604090205460ff1690565b3480156102e457600080fd5b506102f86102f3366004613812565b610b43565b6040519081526020016101fe565b34801561031257600080fd5b506102f861032136600461382b565b610c0e565b34801561033257600080fd5b506103466103413660046138bb565b610c34565b005b34801561035457600080fd5b5061034661036336600461396c565b610d87565b610346610f52565b34801561037c57600080fd5b5061034661038b366004613a06565b610fd2565b34801561039c57600080fd5b506103466103ab366004613a32565b611064565b3480156103bc57600080fd5b506101f26103cb3660046137f5565b6114ed565b3480156103dc57600080fd5b506103e56115c5565b6040516101fe9190613b4c565b3480156103fe57600080fd5b5061034661040d366004613bb0565b61184e565b34801561041e57600080fd5b5061043261042d366004613a32565b6118ae565b6040805192151583526001600160a01b039091166020830152016101fe565b34801561045d57600080fd5b5061047161046c366004613bf9565b61194c565b6040516101fe9190613c8b565b34801561048a57600080fd5b50610493611ab2565b6040516001600160a01b0390911681526020016101fe565b3480156104b757600080fd5b506103466104c6366004613ce2565b611b12565b3480156104d757600080fd5b506103466104e63660046137f5565b611c06565b3480156104f757600080fd5b50610227610506366004613dc5565b7fbc197c810000000000000000000000000000000000000000000000000000000095945050505050565b34801561053c57600080fd5b506104937f000000000000000000000000000000000000000000000000000000000000000081565b34801561057057600080fd5b506102f8611c67565b34801561058557600080fd5b50610346610594366004613e73565b611d00565b3480156105a557600080fd5b506103e5611f04565b3480156105ba57600080fd5b506105c36120bb565b6040516101fe9190613ebb565b3480156105dc57600080fd5b506105e561216c565b6040516101fe9190613ece565b3480156105fe57600080fd5b5061061261060d3660046137f5565b612185565b6040516101fe9190613f1b565b34801561062b57600080fd5b5061022761063a366004613f2e565b7ff23a6e610000000000000000000000000000000000000000000000000000000095945050505050565b60006001600160e01b03198216630271189760e51b148061069557506001600160e01b03198216630a85bd0160e11b145b806106a457506106a48261228f565b92915050565b630a85bd0160e11b5b949350505050565b6000806106c784610b43565b905060006106d582856122dd565b9050610718816001600160a01b031660009081527f3181e78fc1b109bc611fd2406150bf06e33faa75f71cba12c3e1fd670f2def04602052604090205460ff1690565b1561072f5750630b135d3f60e11b91506106a49050565b6001600160a01b03811660009081527f3181e78fc1b109bc611fd2406150bf06e33faa75f71cba12c3e1fd670f2def066020526040902033906107728183612301565b806107a2575061078181612323565b60011480156107a257506000610797828261232d565b6001600160a01b0316145b6108185760405162461bcd60e51b8152602060048201526024808201527f4163636f756e743a2063616c6c6572206e6f7420617070726f7665642074617260448201527f6765742e0000000000000000000000000000000000000000000000000000000060648201526084015b60405180910390fd5b610821836114ed565b1561083157630b135d3f60e11b94505b5050505092915050565b6001600160a01b03821660009081527f3181e78fc1b109bc611fd2406150bf06e33faa75f71cba12c3e1fd670f2def04602052604081205460ff1615610883575060016106a4565b6001600160a01b03831660008181527f3181e78fc1b109bc611fd2406150bf06e33faa75f71cba12c3e1fd670f2def05602090815260408083208151606081018352815481526001909101546001600160801b03808216838601908152600160801b9092048116838501529585527f3181e78fc1b109bc611fd2406150bf06e33faa75f71cba12c3e1fd670f2def0690935292209051919290914291161180610939575081604001516001600160801b03164210155b8061094a575061094881612323565b155b1561095a576000925050506106a4565b600061097161096c6060870187613f97565b612339565b9050600061097e83612323565b600114801561099f57506000610994848261232d565b6001600160a01b0316145b90507f49e2d80a000000000000000000000000000000000000000000000000000000006001600160e01b0319831601610a2f576000806109ea6109e560608a018a613f97565b61238b565b9150915082610a10576109fd8583612301565b610a1057600096505050505050506106a4565b8551811115610a2857600096505050505050506106a4565b5050610b36565b7fb81e25d6000000000000000000000000000000000000000000000000000000006001600160e01b0319831601610b2957600080610a78610a7360608a018a613f97565b612408565b509150915082610ad85760005b8251811015610ad657610aba838281518110610aa357610aa3613fde565b60200260200101518761230190919063ffffffff16565b610ace5760009750505050505050506106a4565b600101610a85565b505b60005b8251811015610b2157818181518110610af657610af6613fde565b602002602001015187600001511015610b195760009750505050505050506106a4565b600101610adb565b505050610b36565b60009450505050506106a4565b5060019695505050505050565b60008082604051602001610b5991815260200190565b60405160208183030381529060405280519060200120905060007f82cac545155fcbf147f2a9013809613677ac7d65498556e6d19ce43bcbf6c28482604051602001610baf929190918252602082015260400190565b604051602081830303815290604052805190602001209050610bcf61246d565b60405161190160f01b60208201526022810191909152604281018290526062016040516020818303038152906040528051906020012092505050919050565b6000610c18612594565b610c2284846125fe565b9050610c2d82612778565b9392505050565b333014610ca95760405162461bcd60e51b815260206004820152602f60248201527f4c616e6769744163636f756e743a206f6e6c79206163636f756e74206974736560448201527f6c662063616e2072656769737465720000000000000000000000000000000000606482015260840161080f565b6040517f320399630000000000000000000000000000000000000000000000000000000081526001600160a01b037f00000000000000000000000000000000000000000000000000000000000000001690633203996390610d109087908790600401613ff4565b600060405180830381600087803b158015610d2a57600080fd5b505af1158015610d3e573d6000803e3d6000fd5b50505050610d8182828080601f0160208091040260200160405190810160405280939291908181526020018383808284376000920191909152506127c592505050565b50505050565b610d8f611ab2565b6001600160a01b0316336001600160a01b03161480610ddc57503360009081527f3181e78fc1b109bc611fd2406150bf06e33faa75f71cba12c3e1fd670f2def04602052604090205460ff165b610e325760405162461bcd60e51b815260206004820152602160248201527f4163636f756e743a206e6f742061646d696e206f7220456e747279506f696e746044820152601760f91b606482015260840161080f565b610e3a6128e4565b8481148015610e4857508483145b610e945760405162461bcd60e51b815260206004820152601d60248201527f4163636f756e743a2077726f6e67206172726179206c656e677468732e000000604482015260640161080f565b60005b85811015610f4957610f40878783818110610eb457610eb4613fde565b9050602002016020810190610ec991906137f5565b868684818110610edb57610edb613fde565b90506020020135858585818110610ef457610ef4613fde565b9050602002810190610f069190613f97565b8080601f016020809104026020016040519081016040528093929190818152602001838380828437600092019190915250612a0a92505050565b50600101610e97565b50505050505050565b610f5a611ab2565b6040517fb760faf90000000000000000000000000000000000000000000000000000000081523060048201526001600160a01b03919091169063b760faf99034906024016000604051808303818588803b158015610fb757600080fd5b505af1158015610fcb573d6000803e3d6000fd5b5050505050565b610fda612a7b565b610fe2611ab2565b6040517f205c28780000000000000000000000000000000000000000000000000000000081526001600160a01b03848116600483015260248201849052919091169063205c2878906044015b600060405180830381600087803b15801561104857600080fd5b505af115801561105c573d6000803e3d6000fd5b505050505050565b600061107360208501856137f5565b90504261108660e0860160c0870161403a565b6001600160801b0316111580156110b557506110a9610100850160e0860161403a565b6001600160801b031642105b6111015760405162461bcd60e51b815260206004820152600760248201527f21706572696f6400000000000000000000000000000000000000000000000000604482015260640161080f565b60008061110f8686866118ae565b91509150816111625760405162461bcd60e51b815260040161080f9060208082526004908201527f2173696700000000000000000000000000000000000000000000000000000000604082015260600190565b61010086013560009081527f3181e78fc1b109bc611fd2406150bf06e33faa75f71cba12c3e1fd670f2def0760209081526040808320805460ff191660011790556111b291908901908901614066565b60ff1611156111df5760006111cd6040880160208901614066565b60ff166001149050610f498482612af9565b6001600160a01b03831660009081527f3181e78fc1b109bc611fd2406150bf06e33faa75f71cba12c3e1fd670f2def04602052604090205460ff16156112675760405162461bcd60e51b815260206004820152600560248201527f61646d696e000000000000000000000000000000000000000000000000000000604482015260640161080f565b6112917f3181e78fc1b109bc611fd2406150bf06e33faa75f71cba12c3e1fd670f2def0284612c6b565b506040518060600160405280876060013581526020018760800160208101906112ba919061403a565b6001600160801b031681526020016112d860c0890160a08a0161403a565b6001600160801b0316905260008051602061470f8339815191526001600160a01b03851660009081526005919091016020908152604080832084518155918401519301516001600160801b03908116600160801b0293169290921760019092019190915561137561135460008051602061470f83398151915290565b6001600160a01b038616600090815260069190910160205260409020612c80565b805190915060005b818110156113ec576113d983828151811061139a5761139a613fde565b60200260200101516113b760008051602061470f83398151915290565b6001600160a01b03891660009081526006919091016020526040902090612c8d565b506113e5600182614097565b905061137d565b506113fa60408901896140aa565b9050905060005b8181101561148e5761147b61141960408b018b6140aa565b8381811061142957611429613fde565b905060200201602081019061143e91906137f5565b6001600160a01b03881660009081527f3181e78fc1b109bc611fd2406150bf06e33faa75f71cba12c3e1fd670f2def066020526040902090612c6b565b50611487600182614097565b9050611401565b5061149888612ca2565b846001600160a01b0316836001600160a01b03167ff21d10c26e35863a8df291aca54181ee8c4a3bc8e00246c3f7a5a14b69d826a78a6040516114db9190614186565b60405180910390a35050505050505050565b6001600160a01b03811660009081527f3181e78fc1b109bc611fd2406150bf06e33faa75f71cba12c3e1fd670f2def05602090815260408083208151606081018352815481526001909101546001600160801b03808216948301859052600160801b9091041691810191909152904210801590611576575080604001516001600160801b031642105b8015610c2d57506001600160a01b03831660009081527f3181e78fc1b109bc611fd2406150bf06e33faa75f71cba12c3e1fd670f2def06602052604081206115bd90612323565b119392505050565b606060006115e460008051602061470f8339815191525b600201612c80565b80519091506000805b828110156116755761161784828151811061160a5761160a613fde565b60200260200101516114ed565b1561162e57816116268161427f565b925050611663565b600084828151811061164257611642613fde565b60200260200101906001600160a01b031690816001600160a01b0316815250505b61166e600182614097565b90506115ed565b508067ffffffffffffffff81111561168f5761168f613624565b6040519080825280602002602001820160405280156116e857816020015b6040805160a0810182526000808252606060208084018290529383018290528201819052608082015282526000199092019101816116ad5790505b5093506000805b838110156118465760006001600160a01b031685828151811061171457611714613fde565b60200260200101516001600160a01b03161461183457600085828151811061173e5761173e613fde565b60200260200101519050600061175f60008051602061470f83398151915290565b6001600160a01b038316600081815260059290920160209081526040928390208351606081018552815481526001909101546001600160801b0380821683850152600160801b9091041681850152835160a0810190945291835290925081016117d560008051602061470f833981519152611354565b81526020018260000151815260200182602001516001600160801b0316815260200182604001516001600160801b03168152508885806118149061427f565b96508151811061182657611826613fde565b602002602001018190525050505b61183f600182614097565b90506116ef565b505050505090565b611856612d62565b6118a25760405162461bcd60e51b815260206004820152600e60248201527f4e6f7420617574686f72697a6564000000000000000000000000000000000000604482015260640161080f565b6118ab816127c5565b50565b6000806118c46118bd86612da1565b8585612ee5565b61010086013560009081527f3181e78fc1b109bc611fd2406150bf06e33faa75f71cba12c3e1fd670f2def07602052604090205490915060ff1615801561194257506001600160a01b03811660009081527f3181e78fc1b109bc611fd2406150bf06e33faa75f71cba12c3e1fd670f2def04602052604090205460ff165b9150935093915050565b60608167ffffffffffffffff81111561196757611967613624565b60405190808252806020026020018201604052801561199a57816020015b60608152602001906001900390816119855790505b509050336000805b84811015611aa9578115611a21576119ff308787848181106119c6576119c6613fde565b90506020028101906119d89190613f97565b866040516020016119eb93929190614298565b604051602081830303815290604052612f37565b848281518110611a1157611a11613fde565b6020026020010181905250611aa1565b611a8330878784818110611a3757611a37613fde565b9050602002810190611a499190613f97565b8080601f016020809104026020016040519081016040528093929190818152602001838380828437600092019190915250612f3792505050565b848281518110611a9557611a95613fde565b60200260200101819052505b6001016119a2565b50505092915050565b7f036f52c1827dab135f7fd44ca0bddde297e2f659c710e0ec53e975f22b548300546000906001600160a01b03168015611aeb57919050565b7f000000000000000000000000000000000000000000000000000000000000000091505090565b611b1a611ab2565b6001600160a01b0316336001600160a01b03161480611b6757503360009081527f3181e78fc1b109bc611fd2406150bf06e33faa75f71cba12c3e1fd670f2def04602052604090205460ff165b611bbd5760405162461bcd60e51b815260206004820152602160248201527f4163636f756e743a206e6f742061646d696e206f7220456e747279506f696e746044820152601760f91b606482015260840161080f565b611bc56128e4565b610fcb848484848080601f016020809104026020016040519081016040528093929190818152602001838380828437600092019190915250612a0a92505050565b611c0e612a7b565b7f036f52c1827dab135f7fd44ca0bddde297e2f659c710e0ec53e975f22b54830080547fffffffffffffffffffffffff0000000000000000000000000000000000000000166001600160a01b0392909216919091179055565b6000611c71611ab2565b6040517f35567e1a000000000000000000000000000000000000000000000000000000008152306004820152600060248201526001600160a01b0391909116906335567e1a90604401602060405180830381865afa158015611cd7573d6000803e3d6000fd5b505050506040513d601f19601f82011682018060405250810190611cfb91906142be565b905090565b7f322cf19c484104d3b1a9c2982ebae869ede3fa5f6c4703ca41b9a48c76ee03005460ff808216916101009004168015808015611d40575060018360ff16105b80611d585750303b158015611d5857508260ff166001145b611dca5760405162461bcd60e51b815260206004820152602e60248201527f496e697469616c697a61626c653a20636f6e747261637420697320616c72656160448201527f647920696e697469616c697a6564000000000000000000000000000000000000606482015260840161080f565b7f322cf19c484104d3b1a9c2982ebae869ede3fa5f6c4703ca41b9a48c76ee0300805460ff191660011790558015611e2b577f322cf19c484104d3b1a9c2982ebae869ede3fa5f6c4703ca41b9a48c76ee0300805461ff0019166101001790555b611e6b8686868080601f016020809104026020016040519081016040528093929190818152602001838380828437600092019190915250612f5c92505050565b7f036f52c1827dab135f7fd44ca0bddde297e2f659c710e0ec53e975f22b54830155611e98866001612af9565b801561105c577f322cf19c484104d3b1a9c2982ebae869ede3fa5f6c4703ca41b9a48c76ee0300805461ff0019169055604080516001815290517f7f26b83ff96e1f2b6a682f133852f6798a09c465da95921460cefb38474024989181900360200190a1505050505050565b60606000611f1f60008051602061470f8339815191526115dc565b80519091508067ffffffffffffffff811115611f3d57611f3d613624565b604051908082528060200260200182016040528015611f9657816020015b6040805160a081018252600080825260606020808401829052938301829052820181905260808201528252600019909201910181611f5b5790505b50925060005b818110156120b5576000838281518110611fb857611fb8613fde565b602002602001015190506000611fd960008051602061470f83398151915290565b6001600160a01b038316600081815260059290920160209081526040928390208351606081018552815481526001909101546001600160801b0380821683850152600160801b9091041681850152835160a08101909452918352909250810161204f60008051602061470f833981519152611354565b81526020018260000151815260200182602001516001600160801b0316815260200182604001516001600160801b031681525086848151811061209457612094613fde565b602002602001018190525050506001816120ae9190614097565b9050611f9c565b50505090565b60607f4bc804ba64359c0e35e5ed5d90ee596ecaa49a3a930ddcb1470ea0dd625da90080546120e9906142d7565b80601f0160208091040260200160405190810160405280929190818152602001828054612115906142d7565b80156121625780601f1061213757610100808354040283529160200191612162565b820191906000526020600020905b81548152906001019060200180831161214557829003601f168201915b5050505050905090565b6060611cfb60008051602061470f833981519152612c80565b6040805160a08082018352600080835260606020808501829052848601839052818501839052608085018390526001600160a01b0387168084527f3181e78fc1b109bc611fd2406150bf06e33faa75f71cba12c3e1fd670f2def0582528684208751938401885280548452600101546001600160801b0380821685850152600160801b90910416838801528651948501875280855283527f3181e78fc1b109bc611fd2406150bf06e33faa75f71cba12c3e1fd670f2def06815294909120929390929082019061225490612c80565b81526020018260000151815260200182602001516001600160801b0316815260200182604001516001600160801b0316815250915050919050565b60006001600160e01b03198216630271189760e51b14806106a457507f01ffc9a7000000000000000000000000000000000000000000000000000000006001600160e01b03198316146106a4565b60008060006122ec8585612f8f565b915091506122f981612fd4565b509392505050565b6001600160a01b03811660009081526001830160205260408120541515610c2d565b60006106a4825490565b6000610c2d8383613139565b600060048210156123745760405162461bcd60e51b8152602060048201526005602482015264214461746160d81b604482015260640161080f565b61238260046000848661430b565b610c2d91614335565b60008060448310156123c75760405162461bcd60e51b8152602060048201526005602482015264214461746160d81b604482015260640161080f565b6123d560246004858761430b565b8101906123e291906137f5565b91506123f260446024858761430b565b8101906123ff9190613812565b90509250929050565b6060808060648410156124455760405162461bcd60e51b8152602060048201526005602482015264214461746160d81b604482015260640161080f565b612452846004818861430b565b81019061245f91906143e5565b919790965090945092505050565b6000306001600160a01b037f0000000000000000000000000000000000000000000000000000000000000000161480156124c657507f000000000000000000000000000000000000000000000000000000000000000046145b156124f057507f000000000000000000000000000000000000000000000000000000000000000090565b50604080517f00000000000000000000000000000000000000000000000000000000000000006020808301919091527f0000000000000000000000000000000000000000000000000000000000000000828401527f000000000000000000000000000000000000000000000000000000000000000060608301524660808301523060a0808401919091528351808403909101815260c0909201909252805191012090565b61259c611ab2565b6001600160a01b0316336001600160a01b0316146125fc5760405162461bcd60e51b815260206004820152601c60248201527f6163636f756e743a206e6f742066726f6d20456e747279506f696e7400000000604482015260640161080f565b565b7f19457468657265756d205369676e6564204d6573736167653a0a3332000000006000908152601c829052603c8120600061267d612640610140870187613f97565b8080601f01602080910402602001604051908101604052809392919081815260200183838082843760009201919091525086939250506122dd9050565b9050612689818661083b565b612698576001925050506106a4565b6001600160a01b031660009081527f3181e78fc1b109bc611fd2406150bf06e33faa75f71cba12c3e1fd670f2def0560209081526040808320815160608082018452825482526001909201546001600160801b0380821683870152600160801b8204908116928501929092528351928301845294825265ffffffffffff8086169483019490945292831691015260d09190911b7fffffffffffff00000000000000000000000000000000000000000000000000001660a09190911b79ffffffffffff00000000000000000000000000000000000000001617949350505050565b80156118ab57604051600090339060001990849084818181858888f193505050503d8060008114610fcb576040519150601f19603f3d011682016040523d82523d6000602084013e610fcb565b60007f4bc804ba64359c0e35e5ed5d90ee596ecaa49a3a930ddcb1470ea0dd625da90080546127f3906142d7565b80601f016020809104026020016040519081016040528092919081815260200182805461281f906142d7565b801561286c5780601f106128415761010080835404028352916020019161286c565b820191906000526020600020905b81548152906001019060200180831161284f57829003601f168201915b505050505090508161289b7f4bc804ba64359c0e35e5ed5d90ee596ecaa49a3a930ddcb1470ea0dd625da90090565b906128a69082614518565b507fc9c7c3fe08b88b4df9d4d47ef47d2c43d55c025a0ba88ca442580ed9e7348a1681836040516128d89291906145d8565b60405180910390a15050565b6040517fc3c5a5470000000000000000000000000000000000000000000000000000000081523060048201527f0000000000000000000000000000000000000000000000000000000000000000906001600160a01b0382169063c3c5a54790602401602060405180830381865afa158015612963573d6000803e3d6000fd5b505050506040513d601f19601f820116820180604052508101906129879190614606565b6118ab577f036f52c1827dab135f7fd44ca0bddde297e2f659c710e0ec53e975f22b548301546040517f83a03f8c00000000000000000000000000000000000000000000000000000000815260048101919091526001600160a01b038216906383a03f8c906024015b600060405180830381600087803b158015610fb757600080fd5b60606000846001600160a01b03168484604051612a279190614628565b60006040518083038185875af1925050503d8060008114612a64576040519150601f19603f3d011682016040523d82523d6000602084013e612a69565b606091505b5092509050806122f957815160208301fd5b3360009081527f3181e78fc1b109bc611fd2406150bf06e33faa75f71cba12c3e1fd670f2def04602052604090205460ff166125fc5760405162461bcd60e51b815260206004820152600660248201527f2161646d696e0000000000000000000000000000000000000000000000000000604482015260640161080f565b612b038282613163565b6001600160a01b037f0000000000000000000000000000000000000000000000000000000000000000163b15612c67578015612bd4576001600160a01b037f000000000000000000000000000000000000000000000000000000000000000016630b61e12b837f036f52c1827dab135f7fd44ca0bddde297e2f659c710e0ec53e975f22b548300600101546040516001600160e01b031960e085901b1681526001600160a01b0390921660048301526024820152604401600060405180830381600087803b15801561104857600080fd5b7f036f52c1827dab135f7fd44ca0bddde297e2f659c710e0ec53e975f22b548301546040517f9387a3800000000000000000000000000000000000000000000000000000000081526001600160a01b03848116600483015260248201929092527f000000000000000000000000000000000000000000000000000000000000000090911690639387a3809060440161102e565b5050565b6000610c2d836001600160a01b038416613230565b60606000610c2d8361327f565b6000610c2d836001600160a01b0384166132db565b6001600160a01b037f0000000000000000000000000000000000000000000000000000000000000000163b156118ab576001600160a01b037f000000000000000000000000000000000000000000000000000000000000000016630b61e12b612d0e60208401846137f5565b7f036f52c1827dab135f7fd44ca0bddde297e2f659c710e0ec53e975f22b5483015460405160e084901b6001600160e01b03191681526001600160a01b0392909216600483015260248201526044016129f0565b3360009081527f3181e78fc1b109bc611fd2406150bf06e33faa75f71cba12c3e1fd670f2def04602052604081205460ff1680611cfb57505030331490565b60607f3fd4a1a1a267c84185e3b7eecd57c68783c0581d538b9d6e5f23e4670497c1e9612dd160208401846137f5565b612de16040850160208601614066565b612dee60408601866140aa565b604051602001612dff929190614644565b60408051601f1981840301815291905280516020909101206060860135612e2c60a088016080890161403a565b612e3c60c0890160a08a0161403a565b612e4c60e08a0160c08b0161403a565b612e5d6101008b0160e08c0161403a565b60408051602081019a909a526001600160a01b039098169789019790975260ff9095166060880152608087019390935260a08601919091526001600160801b0390811660c086015290811660e0850152908116610100848101919091529116610120830152830135610140820152610160016040516020818303038152906040529050919050565b60006106b383838080601f0160208091040260200160405190810160405280939291908181526020018383808284376000920191909152505087516020890120612f31925090506133ce565b906122dd565b6060610c2d83836040518060600160405280602781526020016146e8602791396133fb565b60008282604051602001612f71929190614686565b60405160208183030381529060405280519060200120905092915050565b6000808251604103612fc55760208301516040840151606085015160001a612fb987828585613473565b94509450505050612fcd565b506000905060025b9250929050565b6000816004811115612fe857612fe86146a8565b03612ff05750565b6001816004811115613004576130046146a8565b036130515760405162461bcd60e51b815260206004820152601860248201527f45434453413a20696e76616c6964207369676e61747572650000000000000000604482015260640161080f565b6002816004811115613065576130656146a8565b036130b25760405162461bcd60e51b815260206004820152601f60248201527f45434453413a20696e76616c6964207369676e6174757265206c656e67746800604482015260640161080f565b60038160048111156130c6576130c66146a8565b036118ab5760405162461bcd60e51b815260206004820152602260248201527f45434453413a20696e76616c6964207369676e6174757265202773272076616c60448201527f7565000000000000000000000000000000000000000000000000000000000000606482015260840161080f565b600082600001828154811061315057613150613fde565b9060005260206000200154905092915050565b6001600160a01b03821660009081527f3181e78fc1b109bc611fd2406150bf06e33faa75f71cba12c3e1fd670f2def0460205260409020805460ff191682158015919091179091556131cd576131c760008051602061470f83398151915283612c6b565b506131e7565b6131e560008051602061470f83398151915283612c8d565b505b816001600160a01b03167f235bc17e7930760029e9f4d860a2a8089976de5b381cf8380fc11c1d88a1113382604051613224911515815260200190565b60405180910390a25050565b6000818152600183016020526040812054613277575081546001818101845560008481526020808220909301849055845484825282860190935260409020919091556106a4565b5060006106a4565b6060816000018054806020026020016040519081016040528092919081815260200182805480156132cf57602002820191906000526020600020905b8154815260200190600101908083116132bb575b50505050509050919050565b600081815260018301602052604081205480156133c45760006132ff6001836146be565b8554909150600090613313906001906146be565b905081811461337857600086600001828154811061333357613333613fde565b906000526020600020015490508087600001848154811061335657613356613fde565b6000918252602080832090910192909255918252600188019052604090208390555b8554869080613389576133896146d1565b6001900381819060005260206000200160009055905585600101600086815260200190815260200160002060009055600193505050506106a4565b60009150506106a4565b60006106a46133db61246d565b8360405161190160f01b8152600281019290925260228201526042902090565b6060600080856001600160a01b0316856040516134189190614628565b600060405180830381855af49150503d8060008114613453576040519150601f19603f3d011682016040523d82523d6000602084013e613458565b606091505b509150915061346986838387613537565b9695505050505050565b6000807f7fffffffffffffffffffffffffffffff5d576e7357a4501ddfe92f46681b20a08311156134aa575060009050600361352e565b6040805160008082526020820180845289905260ff881692820192909252606081018690526080810185905260019060a0016020604051602081039080840390855afa1580156134fe573d6000803e3d6000fd5b5050604051601f1901519150506001600160a01b0381166135275760006001925092505061352e565b9150600090505b94509492505050565b606083156135a657825160000361359f576001600160a01b0385163b61359f5760405162461bcd60e51b815260206004820152601d60248201527f416464726573733a2063616c6c20746f206e6f6e2d636f6e7472616374000000604482015260640161080f565b50816106b3565b6106b383838151156135bb5781518083602001fd5b8060405162461bcd60e51b815260040161080f9190613ebb565b6000602082840312156135e757600080fd5b81356001600160e01b031981168114610c2d57600080fd5b6001600160a01b03811681146118ab57600080fd5b803561361f816135ff565b919050565b634e487b7160e01b600052604160045260246000fd5b604051601f8201601f1916810167ffffffffffffffff8111828210171561366357613663613624565b604052919050565b600067ffffffffffffffff83111561368557613685613624565b613698601f8401601f191660200161363a565b90508281528383830111156136ac57600080fd5b828260208301376000602084830101529392505050565b600082601f8301126136d457600080fd5b610c2d8383356020850161366b565b600080600080608085870312156136f957600080fd5b8435613704816135ff565b93506020850135613714816135ff565b925060408501359150606085013567ffffffffffffffff81111561373757600080fd5b613743878288016136c3565b91505092959194509250565b6000806040838503121561376257600080fd5b82359150602083013567ffffffffffffffff81111561378057600080fd5b61378c858286016136c3565b9150509250929050565b600061016082840312156137a957600080fd5b50919050565b600080604083850312156137c257600080fd5b82356137cd816135ff565b9150602083013567ffffffffffffffff8111156137e957600080fd5b61378c85828601613796565b60006020828403121561380757600080fd5b8135610c2d816135ff565b60006020828403121561382457600080fd5b5035919050565b60008060006060848603121561384057600080fd5b833567ffffffffffffffff81111561385757600080fd5b61386386828701613796565b9660208601359650604090950135949350505050565b60008083601f84011261388b57600080fd5b50813567ffffffffffffffff8111156138a357600080fd5b602083019150836020828501011115612fcd57600080fd5b600080600080604085870312156138d157600080fd5b843567ffffffffffffffff808211156138e957600080fd5b6138f588838901613879565b9096509450602087013591508082111561390e57600080fd5b5061391b87828801613879565b95989497509550505050565b60008083601f84011261393957600080fd5b50813567ffffffffffffffff81111561395157600080fd5b6020830191508360208260051b8501011115612fcd57600080fd5b6000806000806000806060878903121561398557600080fd5b863567ffffffffffffffff8082111561399d57600080fd5b6139a98a838b01613927565b909850965060208901359150808211156139c257600080fd5b6139ce8a838b01613927565b909650945060408901359150808211156139e757600080fd5b506139f489828a01613927565b979a9699509497509295939492505050565b60008060408385031215613a1957600080fd5b8235613a24816135ff565b946020939093013593505050565b600080600060408486031215613a4757600080fd5b833567ffffffffffffffff80821115613a5f57600080fd5b908501906101208288031215613a7457600080fd5b90935060208501359080821115613a8a57600080fd5b50613a9786828701613879565b9497909650939450505050565b600060a083016001600160a01b0380845116855260208085015160a0602088015283815180865260c089019150602083019550600092505b80831015613afe57855185168252948301946001929092019190830190613adc565b506040870151604089015260608701519450613b2560608901866001600160801b03169052565b60808701519450613b4160808901866001600160801b03169052565b979650505050505050565b600060208083016020845280855180835260408601915060408160051b87010192506020870160005b82811015613ba357603f19888603018452613b91858351613aa4565b94509285019290850190600101613b75565b5092979650505050505050565b600060208284031215613bc257600080fd5b813567ffffffffffffffff811115613bd957600080fd5b8201601f81018413613bea57600080fd5b6106b38482356020840161366b565b60008060208385031215613c0c57600080fd5b823567ffffffffffffffff811115613c2357600080fd5b613c2f85828601613927565b90969095509350505050565b60005b83811015613c56578181015183820152602001613c3e565b50506000910152565b60008151808452613c77816020860160208601613c3b565b601f01601f19169290920160200192915050565b600060208083016020845280855180835260408601915060408160051b87010192506020870160005b82811015613ba357603f19888603018452613cd0858351613c5f565b94509285019290850190600101613cb4565b60008060008060608587031215613cf857600080fd5b8435613d03816135ff565b935060208501359250604085013567ffffffffffffffff811115613d2657600080fd5b61391b87828801613879565b600067ffffffffffffffff821115613d4c57613d4c613624565b5060051b60200190565b600082601f830112613d6757600080fd5b81356020613d7c613d7783613d32565b61363a565b8083825260208201915060208460051b870101935086841115613d9e57600080fd5b602086015b84811015613dba5780358352918301918301613da3565b509695505050505050565b600080600080600060a08688031215613ddd57600080fd5b8535613de8816135ff565b94506020860135613df8816135ff565b9350604086013567ffffffffffffffff80821115613e1557600080fd5b613e2189838a01613d56565b94506060880135915080821115613e3757600080fd5b613e4389838a01613d56565b93506080880135915080821115613e5957600080fd5b50613e66888289016136c3565b9150509295509295909350565b600080600060408486031215613e8857600080fd5b8335613e93816135ff565b9250602084013567ffffffffffffffff811115613eaf57600080fd5b613a9786828701613879565b602081526000610c2d6020830184613c5f565b6020808252825182820181905260009190848201906040850190845b81811015613f0f5783516001600160a01b031683529284019291840191600101613eea565b50909695505050505050565b602081526000610c2d6020830184613aa4565b600080600080600060a08688031215613f4657600080fd5b8535613f51816135ff565b94506020860135613f61816135ff565b93506040860135925060608601359150608086013567ffffffffffffffff811115613f8b57600080fd5b613e66888289016136c3565b6000808335601e19843603018112613fae57600080fd5b83018035915067ffffffffffffffff821115613fc957600080fd5b602001915036819003821315612fcd57600080fd5b634e487b7160e01b600052603260045260246000fd5b60208152816020820152818360408301376000818301604090810191909152601f909201601f19160101919050565b80356001600160801b038116811461361f57600080fd5b60006020828403121561404c57600080fd5b610c2d82614023565b803560ff8116811461361f57600080fd5b60006020828403121561407857600080fd5b610c2d82614055565b634e487b7160e01b600052601160045260246000fd5b808201808211156106a4576106a4614081565b6000808335601e198436030181126140c157600080fd5b83018035915067ffffffffffffffff8211156140dc57600080fd5b6020019150600581901b3603821315612fcd57600080fd5b6000808335601e1984360301811261410b57600080fd5b830160208101925035905067ffffffffffffffff81111561412b57600080fd5b8060051b3603821315612fcd57600080fd5b8183526000602080850194508260005b8581101561417b578135614160816135ff565b6001600160a01b03168752958201959082019060010161414d565b509495945050505050565b602081526141a76020820161419a84613614565b6001600160a01b03169052565b60006141b560208401614055565b60ff81166040840152506141cc60408401846140f4565b6101208060608601526141e46101408601838561413d565b9250606086013560808601526141fc60808701614023565b6001600160801b03811660a0870152915061421960a08701614023565b6001600160801b03811660c0870152915061423660c08701614023565b6001600160801b03811660e0870152915061425360e08701614023565b915061010061426c818701846001600160801b03169052565b9590950135939094019290925250919050565b60006001820161429157614291614081565b5060010190565b8284823760609190911b6bffffffffffffffffffffffff19169101908152601401919050565b6000602082840312156142d057600080fd5b5051919050565b600181811c908216806142eb57607f821691505b6020821081036137a957634e487b7160e01b600052602260045260246000fd5b6000808585111561431b57600080fd5b8386111561432857600080fd5b5050820193919092039150565b6001600160e01b0319813581811691600485101561435d5780818660040360031b1b83161692505b505092915050565b600082601f83011261437657600080fd5b81356020614386613d7783613d32565b82815260059290921b840181019181810190868411156143a557600080fd5b8286015b84811015613dba57803567ffffffffffffffff8111156143c95760008081fd5b6143d78986838b01016136c3565b8452509183019183016143a9565b6000806000606084860312156143fa57600080fd5b833567ffffffffffffffff8082111561441257600080fd5b818601915086601f83011261442657600080fd5b81356020614436613d7783613d32565b82815260059290921b8401810191818101908a84111561445557600080fd5b948201945b8386101561447c57853561446d816135ff565b8252948201949082019061445a565b9750508701359250508082111561449257600080fd5b61449e87838801613d56565b935060408601359150808211156144b457600080fd5b506144c186828701614365565b9150509250925092565b601f821115614513576000816000526020600020601f850160051c810160208610156144f45750805b601f850160051c820191505b8181101561105c57828155600101614500565b505050565b815167ffffffffffffffff81111561453257614532613624565b6145468161454084546142d7565b846144cb565b602080601f83116001811461457b57600084156145635750858301515b600019600386901b1c1916600185901b17855561105c565b600085815260208120601f198616915b828110156145aa5788860151825594840194600190910190840161458b565b50858210156145c85787850151600019600388901b60f8161c191681555b5050505050600190811b01905550565b6040815260006145eb6040830185613c5f565b82810360208401526145fd8185613c5f565b95945050505050565b60006020828403121561461857600080fd5b81518015158114610c2d57600080fd5b6000825161463a818460208701613c3b565b9190910192915050565b60008184825b8581101561467b57813561465d816135ff565b6001600160a01b03168352602092830192919091019060010161464a565b509095945050505050565b6001600160a01b03831681526040602082015260006106b36040830184613c5f565b634e487b7160e01b600052602160045260246000fd5b818103818111156106a4576106a4614081565b634e487b7160e01b600052603160045260246000fdfe416464726573733a206c6f772d6c6576656c2064656c65676174652063616c6c206661696c65643181e78fc1b109bc611fd2406150bf06e33faa75f71cba12c3e1fd670f2def00a264697066735822122004b9b8d38d6eb4ee920c9b59e363ce39b17a49710ee91cceec9f55b473ccd2c264736f6c63430008180033",
  "linkReferences": {},
  "deployedLinkReferences": {}
}